:020000040800F2
:1000000000000320350600086104000863040008AE
:100010006504000867040008690400080000000087
:100020000000000000000000000000006B04000859
:100030006D040008000000006F040008710400084F
:100040008506000885060008850600088506000864
:100050008506000885060008850600088506000854
:100060008506000885060008850600088506000844
:100070008506000885060008850600088506000834
:100080008506000885060008850600088506000824
:100090008506000885060008850600088506000814
:1000A000790400088904000899040008A9040008DC
:1000B00085060008850600088506000885060008F4
:1000C00085060008850600088506000885060008E4
:1000D00085060008850600088506000885060008D4
:1000E00085060008850600088506000885060008C4
:1000F00085060008850600088506000885060008B4
:1001000085060008850600088506000885060008A3
:100110008506000885060008B90400088506000861
:100120008506000885060008850600088506000883
:100130008506000885060008850600088506000873
:100140008506000885060008850600088506000863
:100150008506000885060008850600088506000853
:100160008506000885060008850600088506000843
:1001700085060008850600088506000800000000C6
:100180008506000885060008850600088506000823
:100190008506000885060008850600088506000813
:0C01A000000000000000000085060008C0
:1001AC0053B94AB9002908BF00281CBF4FF0FF31D2
:1001BC004FF0FF3000F00CB8ADF1080C6DE904CE37
:1001CC0001F010FADDF804E0DDE9022304B0704719
:1001DC00704700BF0348044B834202D0034B03B16A
:1001EC00184770471000002010000020000000008D
:1001FC000548064B1B1AD90F01EBA301491002D07D
:10020C00034B03B11847704710000020100000206A
:10021C000000000010B5064C237843B9FFF7DAFF55
:10022C00044B13B10448AFF300800123237010BDBD
:10023C001000002000000000701A000808B5054BE3
:10024C001BB105490548AFF30080BDE80840FFF736
:10025C00CFBF00BF0000000014000020701A00087F
:10026C00F0B58BB000240594069407940894099477
:10027C000194264B1A6B42F001021A631A6B02F0BE
:10028C0001020192019A02941A6B42F080021A63E5
:10029C001A6B02F080020292029A03941A6B42F0DB
:1002AC0010021A631A6B02F010020392039A049460
:1002BC001A6B42F020021A631B6B03F020030493A9
:1002CC00049B134F22464FF40061384600F0AAFB02
:1002DC00104D22464FF48041284600F0A3FB4FF40A
:1002EC0000630593012606960794089405A93846E1
:1002FC0000F092FA4FF48043059306960794089405
:10030C0005A9284600F088FA0BB0F0BD0038024071
:10031C00001002400014024008B5054B834200D087
:10032C0008BD4FF40061034800F082FBF8E700BF02
:10033C00740000200010024072B6FEE700B595B0C4
:10034C003022002108A801F0ABFA00230393049398
:10035C000593069307930193234A116C41F0805146
:10036C001164126C02F080520192019A02931F4B9D
:10037C001A6842F440421A601B6803F4404302932B
:10038C00029B012308934FF48033099302230E93AD
:10039C004FF480020F9206221092B4221192129303
:1003AC000423139308A800F08BFBB0B900F04AFBB0
:1003BC00A8B90F23039302230493002305934FF44E
:1003CC00A05306934FF480530793052103A800F024
:1003DC00C7FD30B915B05DF804FBFFF7ADFFFFF7B3
:1003EC00ABFFFFF7A9FF00BF0038024000700040D0
:1003FC0008B500F069F9FFF7A1FFFFF731FF00F036
:10040C005FF800F097F8034800F088FE024800F00F
:10041C0085FEFEE7740000202C00002082B0002135
:10042C0000910B4B5A6C42F480425A645A6C02F4A1
:10043C0080420092009A01911A6C42F080521A6428
:10044C001B6C03F080530193019B02B0704700BFFB
:10045C0000380240FEE7FEE7FEE7FEE7FEE77047E6
:10046C007047704708B500F049F908BD08B5024857
:10047C0000F09CFE08BD00BF7400002008B50248C7
:10048C0000F094FE08BD00BF7400002008B50248BF
:10049C0000F08CFE08BD00BF7400002008B50248B7
:1004AC0000F084FE08BD00BF7400002008B50248AF
:1004BC0000F07CFE08BD00BF2C000020704700003F
:1004CC0000B587B000230293039304930593009324
:1004DC0001931648164A026042F22732426083604A
:1004EC0042F20F72C26003614361836100F07AFFD4
:1004FC0090B94FF48053029302A90C4800F0AAFF64
:10050C0068B90023009301936946084801F022F86A
:10051C0040B907B05DF804FBFFF70EFFE9E7FFF702
:10052C000BFFEEE7FFF708FFF3E700BF74000020B6
:10053C000000014000B583B00023009301930F48E5
:10054C000F4A026042F227324260836042F20F721D
:10055C00C260836100F046FF50B900230093019301
:10056C006946064800F0F6FF28B903B05DF804FBB5
:10057C00FFF7E2FEF1E7FFF7DFFEF6E72C000020C5
:10058C000010004010B582B00368244A934204D096
:10059C00234A93422ED002B010BD00240094214B6C
:1005AC005A6C42F001025A645B6C03F00103009335
:1005BC00009B22462146182000F006F9182000F076
:1005CC0013F922462146192000F0FEF8192000F0FC
:1005DC000BF9224621461A2000F0F6F81A2000F0FA
:1005EC0003F9224621461B2000F0EEF81B2000F0F8
:1005FC00FBF8D0E7002101910A4B1A6C42F0100273
:10060C001A641B6C03F010030193019B0A463620FD
:10061C0000F0DAF8362000F0E7F8BCE70000014003
:10062C000010004000380240DFF834D0FFF746FFDE
:10063C000C480D490D4A002302E0D458C450043331
:10064C00C4188C42F9D30A4A0A4C002301E0136007
:10065C000432A242FBD301F075F9FFF7C9FE7047D3
:10066C00000003200000002010000020AC1A00083D
:10067C001000002058020020FEE7000010B50446D0
:10068C000E4B1A784FF47A73B3FBF2F30C4A1068E2
:10069C00B0FBF3F000F0ACF868B90F2C01D90120D5
:1006AC000AE0002221464FF0FF3000F08DF8054B98
:1006BC001C60002000E0012010BD00BF04000020E1
:1006CC00000000200800002008B50B4B1A6842F40B
:1006DC0000721A601A6842F480621A601A6842F456
:1006EC0080721A60032000F05DF80F20FFF7C6FF40
:1006FC00FFF794FE002008BD003C0240034A11683D
:10070C00034B1B780B441360704700BFBC000020E8
:10071C0004000020014B1868704700BFBC0000208B
:10072C00002807DB00F01F02400901239340024A16
:10073C0042F82030704700BF00E100E0002808DBE1
:10074C000901C9B200F1604000F5614080F8001366
:10075C00704700F00F000901C9B2014B19547047E2
:10076C0014ED00E000B500F00700C0F1070CBCF17F
:10077C00040F28BF4FF0040C031D062B0FD9C31E0A
:10078C004FF0FF3E0EFA0CF021EA000199400EFAF0
:10079C0003FE22EA0E0241EA02005DF804FB00238C
:1007AC00EEE70000074AD36823F4E0631B041B0C3C
:1007BC00000200F4E060034343F0BF6343F40033F2
:1007CC00D360704700ED00E010B50446054BD868C7
:1007DC00C0F30220FFF7C6FF01462046FFF7AEFF2D
:1007EC0010BD00BF00ED00E008B5FFF799FF08BD94
:1007FC000138B0F1807F0BD24FF0E0235861054AED
:10080C00F02182F823100020986107221A617047AA
:10081C000120704700ED00E000230F2B00F2F9805F
:10082C0030B583B069E085684FEA430E032404FABF
:10083C000EF425EA0405CC6804FA0EF42C4384600B
:10084C00446824EA02044A68C2F300129A40224324
:10085C00426060E0DC08083450F8242003F00705FF
:10086C00AD004FF00F0E0EFA05FE22EA0E0E0A69CD
:10087C00AA4042EA0E0240F8242060E0092200E07F
:10088C00002202FA0EF22A430234624D45F824206B
:10089C00614A94686FEA0C0224EA0C05D1F804E072
:1008AC001EF4801F01D04CEA04055B4CA560E46883
:1008BC0002EA0405D1F804E01EF4001F01D04CEA52
:1008CC000405554CE560646802EA0405D1F804E0BF
:1008DC001EF4003F01D04CEA04054F4C65602468BF
:1008EC0022404D6815F4803F01D04CEA04024A4C7A
:1008FC00226001330F2B00F28A8001229A400C688F
:10090C0004EA020C32EA0404F3D14C6804F0030448
:10091C00013C012C87D94A6802F00302032A09D052
:10092C00C4685D000322AA4024EA02048A68AA4033
:10093C002243C2604A6802F00302022A8AD0046889
:10094C004FEA430E032202FA0EF224EA02044A682A
:10095C0002F0030202FA0EF2224302604A6812F419
:10096C00403FC6D0002201922C4A546C44F480447F
:10097C005464526C02F480420192019A9C08A51CAA
:10098C00244A52F8255003F0030E4FEA8E0E0F2224
:10099C0002FA0EF225EA0205214A90423FF470AFAA
:1009AC0002F58062904222D002F58062904220D003
:1009BC0002F5806290421ED002F5806290421CD0FB
:1009CC0002F5806290421AD002F58062904218D0F3
:1009DC0002F58062904216D002F58062904214D0EB
:1009EC0002F5806290423FF449AF0A2249E70122A6
:1009FC0047E7022245E7032243E7042241E70522A9
:100A0C003FE706223DE707223BE7082239E703B020
:100A1C0030BD704700380140003C014000380240B6
:100A2C00000002400AB1816170470904816170477E
:100A3C00436901EA030221EA030141EA02418161AF
:100A4C007047000010B582B000230193194B1A6C4B
:100A5C0042F080521A641B6C03F080530193019B8B
:100A6C00154B01221A64FFF755FE0446134B5B68C5
:100A7C0013F4803F08D1FFF74DFE001BB0F57A7FD1
:100A8C00F4D9032002B010BD0B4B01225A64FFF7BE
:100A9C0041FE0446094B5B6813F4003F07D1FFF796
:100AAC0039FE001BB0F57A7FF4D90320EAE7002069
:100ABC00E8E700BF0038024000000E420070004022
:100ACC00002800F0E08170B582B00446036813F092
:100ADC00010F3BD09F4B9B6803F00C03042B2CD0D5
:100AEC009C4B9B6803F00C03082B21D06368B3F577
:100AFC00803F4FD0B3F5A02F52D0964B1A6822F4FA
:100B0C0080321A601A6822F480221A606368002B03
:100B1C0050D0FFF7FFFD05468E4B1B6813F4003FCA
:100B2C0014D1FFF7F7FD401B6428F5D90320B1E180
:100B3C00884B5B6813F4800FD8D0864B1B6813F47A
:100B4C00003F03D06368002B00F09F81236813F0F3
:100B5C00020F54D07F4B9B6813F00C0F3ED07D4B93
:100B6C009B6803F00C03082B33D0E368002B68D090
:100B7C00794B01221A60FFF7CDFD0546754B1B68BA
:100B8C0013F0020F54D1FFF7C5FD401B0228F5D915
:100B9C0003207FE16F4A136843F480331360B5E799
:100BAC006C4B1A6842F480221A601A6842F4803244
:100BBC001A60ABE7FFF7AEFD0546664B1B6813F4F6
:100BCC00003FC3D0FFF7A6FD401B6428F5D90320D6
:100BDC0060E1604B5B6813F4800FC6D15D4B1B6802
:100BEC0013F0020F03D0E368012B40F05081594AF7
:100BFC00136823F0F803216943EAC10313602368E7
:100C0C0013F0080F42D063696BB3534B0122C3F846
:100C1C00802EFFF77FFD05464E4B5B6F13F0020FE6
:100C2C0034D1FFF777FD401B0228F5D9032031E1C1
:100C3C00484A136823F0F803216943EAC10313609F
:100C4C00DDE7454B00221A60FFF764FD0546414B7A
:100C5C001B6813F0020FD2D0FFF75CFD401B02287B
:100C6C00F5D9032016E13C4B0022C3F8802EFFF788
:100C7C0051FD0546374B5B6F13F0020F06D0FFF7A3
:100C8C0049FD401B0228F5D9032003E1236813F02A
:100C9C00040F77D02F4B1B6C13F0805F33D10023E4
:100CAC0001932C4B1A6C42F080521A641B6C03F0AB
:100CBC0080530193019B0125284B1B6813F4807F03
:100CCC0023D0A368012B34D0052B38D0214B1A6FBD
:100CDC0022F001021A671A6F22F004021A67A36845
:100CEC00002B3DD0FFF716FD06461A4B1B6F13F079
:100CFC00020F46D1FFF70EFD801B41F2883398425C
:100D0C00F3D90320C6E00025D6E7144A136843F450
:100D1C0080731360FFF7FEFC0646104B1B6813F440
:100D2C00807FCED1FFF7F6FC801B0228F5D903207B
:100D3C00B0E0084A136F43F001031367CFE7054B8C
:100D4C001A6F42F004021A671A6F42F001021A6716
:100D5C00C5E700BF00380240000047420070004069
:100D6C00FFF7D8FC0646524B1B6F13F0020F08D04E
:100D7C00FFF7D0FC801B41F288339842F3D9032053
:100D8C0088E0EDB9A369002B00F08380484A926893
:100D9C0002F00C02082A51D0022B17D0454B00222E
:100DAC001A66FFF7B7FC0446414B1B6813F0007F33
:100DBC0042D0FFF7AFFC001B0228F5D9032069E0F5
:100DCC003B4A136C23F080531364DBE7394B00224E
:100DDC001A66FFF79FFC0546354B1B6813F0007F26
:100DEC0006D0FFF797FC401B0228F5D9032051E0F1
:100DFC00E369226A1343626A43EA8213A26A5208C5
:100E0C00013A43EA0243E26A43EA0263284A536026
:100E1C00284B01221A66FFF77DFC0446244B1B6805
:100E2C0013F0007F06D1FFF775FC001B0228F5D9E3
:100E3C0003202FE000202DE000202BE0012B2BD0F5
:100E4C001B4B5B6803F48001E269914226D103F0ED
:100E5C003F02216A8A4223D1616A47F6C0721A4066
:100E6C00B2EB811F1ED103F44031A26A5208013A41
:100E7C00B1EB024F18D103F07063E26AB3EB026F6F
:100E8C0014D1002006E001207047012002E001206F
:100E9C0000E0002002B070BD0120FBE70120F9E763
:100EAC000120F7E70120F5E70120F3E70120F1E746
:100EBC00003802400000474208B5264B9B6803F0FF
:100ECC000C03042B41D0082B41D1224B5A6802F061
:100EDC003F025B6813F4800F12D01E4B5968C1F3AC
:100EEC0088111D480023A1FB0001FFF759F9194B8C
:100EFC005B68C3F3014301335B00B0FBF3F008BD47
:100F0C00144B5868C0F388104FEA401CBCEB000C23
:100F1C006EEB0E0E4FEA8E1343EA9C634FEA8C1174
:100F2C00B1EB0C0163EB0E03DB0043EA5173C90018
:100F3C0011EB000C43F10003990200234FEA8C20C3
:100F4C0041EA9C51FFF72CF9D1E70348D7E7034856
:100F5C00D5E700BF00380240001BB7000024F400A6
:100F6C00002800F09B8070B50D4604464F4B1B6863
:100F7C0003F00F038B4208D2CBB24C4A13701368A8
:100F8C0003F00F038B4240F08B80236813F0020FA9
:100F9C0017D013F0040F04D0454A936843F4E05380
:100FAC009360236813F0080F04D0414A936843F40C
:100FBC00604393603E4A936823F0F003A1680B43AF
:100FCC009360236813F0010F32D06368012B21D09A
:100FDC009A1E012A25D9364A126812F0020F61D0E6
:100FEC0033498A6822F0030213438B60FFF792FBAC
:100FFC0006462F4B9B6803F00C036268B3EB820F21
:10100C0016D0FFF787FB801B41F288339842F0D94A
:10101C00032042E0264A126812F4003FE0D101207E
:10102C003BE0234A126812F0007FD9D1012034E052
:10103C001E4B1B6803F00F03AB4207D9EAB21B4BE4
:10104C001A701B6803F00F03AB422DD1236813F009
:10105C00040F06D0164A936823F4E053E1680B435F
:10106C009360236813F0080F07D0114A936823F498
:10107C006043216943EAC1039360FFF71DFF0C4BEA
:10108C009B68C3F303130B4AD35CD8400A4B18601C
:10109C000A4B1868FFF7F2FA002070BD0120704768
:1010AC000120FAE70120F8E70120F6E7003C0240B6
:1010BC0000380240881A00080000002008000020B8
:1010CC0010B4036A046A24F001040462846924F0F5
:1010DC00F00C4CEA021223F00A030B438261036208
:1010EC0010BC704710B4036A046A24F01004046244
:1010FC00846924F4704C4CEA023223F0A00343EAD6
:10110C0001138261036210BC7047836823F0700383
:10111C000B4343F0070383607047000090F83D30A9
:10112C00DBB2012B37D1022380F83D300268D36843
:10113C0043F00103D3600368194A934220D0B3F102
:10114C00804F1DD0A2F57C42934219D002F58062EB
:10115C00934215D002F58062934211D002F5784289
:10116C0093420DD002F57052934209D0A2F59432FD
:10117C00934205D01A6842F001021A6000207047B1
:10118C009A6802F00702062A07D01A6842F0010298
:10119C001A6000207047012070470020704700BF84
:1011AC0000000140704770477047704770B50446A7
:1011BC000368DE681D6915F0020F10D016F0020FDF
:1011CC000DD06FF002021A610123037703689B694B
:1011DC0013F0030F5ED0FFF7E6FF0023237715F023
:1011EC00040F12D016F0040F0FD023686FF0040216
:1011FC001A610223237723689B6913F4407F4FD035
:10120C002046FFF7D0FF0023237715F0080F12D0EC
:10121C0016F0080F0FD023686FF008021A61042330
:10122C0023772368DB6913F0030F40D02046FFF7C8
:10123C00BAFF0023237715F0100F12D016F0100F01
:10124C000FD023686FF010021A61082323772368EC
:10125C00DB6913F4407F31D02046FFF7A4FF002355
:10126C00237715F0010F02D016F0010F2DD115F0D8
:10127C00800F02D016F0800F2FD115F0400F02D046
:10128C0016F0400F31D115F0200F02D016F0200FC0
:10129C0033D170BDFFF786FF2046FFF785FF9CE733
:1012AC002046FFF77FFF2046FFF77EFFABE7204687
:1012BC00FFF778FF2046FFF777FFBAE72046FFF7E6
:1012CC0071FF2046FFF770FFC9E723686FF001023A
:1012DC001A612046FFF720F8C9E723686FF08002F7
:1012EC001A61204600F07DF9C7E723686FF04002D1
:1012FC001A612046FFF759FFC5E723686FF02002FB
:10130C001A61204600F06CF9C3E700000368344A08
:10131C00904212D0B0F1804F0FD0A2F57C42904297
:10132C000BD002F58062904207D002F580629042A9
:10133C0003D002F57842904203D123F070034A683F
:10134C001343274A90422AD0B0F1804F27D0A2F500
:10135C007C42904223D002F5806290421FD002F56D
:10136C00806290421BD002F57842904217D002F571
:10137C007052904213D002F5806290420FD002F569
:10138C00806290420BD0A2F59832904207D002F5C1
:10139C008062904203D002F58062904203D123F424
:1013AC004073CA68134323F080034A6913430360F4
:1013BC008B68C3620B688362094B984203D003F5B8
:1013CC008063984201D10B69036301234361036974
:1013DC0013F0010F03D0036923F00103036170477D
:1013EC000000014040B310B5044690F83D30F3B115
:1013FC00022384F83D30214651F8040BFFF786FF99
:10140C00012384F8463084F83E3084F83F3084F869
:10141C00403084F8413084F8423084F8433084F80A
:10142C00443084F8453084F83D30002010BD80F8FD
:10143C003C30FFF7A7F8DBE70120704710B4846855
:10144C0024F47F4C42EA03220A4342EA0C028260F3
:10145C0010BC704790F83C30012B78D010B5044686
:10146C00012380F83C30022380F83D3002689368F9
:10147C0023F47F4323F0770393600B68602B4CD0ED
:10148C0023D8402B54D011D8202B03D00AD80BB121
:10149C00102B05D119462068FFF737FE002028E0F5
:1014AC00012026E0302BF5D0012022E0502B0AD170
:1014BC00CA6849680068FFF703FE50212068FFF7EF
:1014CC0024FE002015E0012013E0B3F5805F3AD034
:1014DC00B3F5005F14D0702B37D1CB684A6889689C
:1014EC000068FFF7ABFF2268936843F077039360C3
:1014FC000020012384F83D30002384F83C3010BDDB
:10150C00CB684A6889680068FFF798FF226893687F
:10151C0043F4804393600020EBE7CA684968006895
:10152C00FFF7E0FD60212068FFF7EFFD0020E0E70A
:10153C00CA6849680068FFF7C3FD40212068FFF7BF
:10154C00E4FD0020D5E70020D3E70120D1E70220FD
:10155C007047000090F83C20012A3CD010B40346A0
:10156C00012280F83C20022280F83D20026850685D
:10157C00946820F0700C086840EA0C0050601A68FF
:10158C00164882421AD0B2F1804F17D0A0F57C4099
:10159C00824213D000F5806082420FD000F580604B
:1015AC0082420BD000F57840824207D000F5705093
:1015BC00824203D0A0F59430824204D124F08004FE
:1015CC00496821439160012283F83D20002083F873
:1015DC003C0010BC70470220704700BF0000014067
:1015EC00704770472DE9F047089D0E4604460F469C
:1015FC00002B4AD194468C45B2FA82F260D942B1A2
:10160C00C2F12003974020FA03F30CFA02FC1F43AB
:10161C0094404FEA1C4E1FFA8CF6B7FBFEF1230CDC
:10162C000EFB117743EA074301FB06F098420AD9F7
:10163C001CEB030301F1FF3780F01581984240F257
:10164C001281023963441B1AA4B2B3FBFEF00EFBE9
:10165C00103344EA034400FB06F6A6420AD91CEBFD
:10166C00040400F1FF3380F00081A64240F2FD80BB
:10167C006444023840EA0140A41B00211DB1D4404F
:10168C000023C5E90043BDE8F0878B4205D90DB1B5
:10169C00C5E9000100210846F5E7B3FA83F10029FA
:1016AC0046D1B34202D3824200F2F580841A66EB33
:1016BC00030201201746002DE5D0C5E90047E2E7FB
:1016CC00002A40F09380A1EB0C034FEA1C471FFA51
:1016DC008CFE0121B3FBF7F607FB1630230C43EA13
:1016EC0000430EFB06F0984208D91CEB030306F1ED
:1016FC00FF3802D2984200F2D08046461B1AA4B2A0
:10170C00B3FBF7F007FB103344EA03440EFB00FE77
:10171C00A64508D91CEB040400F1FF3302D2A64500
:10172C0000F2B6801846A4EB0E0440EA0640A5E78A
:10173C00C1F120078B4022FA07FC4CEA030C06FA95
:10174C0001FE20FA07F426FA07F344EA0E0400FA25
:10175C0001F84FEA1C404FEA1449B3FBF0FE1FFAA4
:10176C008CF600FB1E3349EA03430EFB06F9994540
:10177C0002FA01F20BD91CEB03030EF1FF3A80F0D5
:10178C008580994540F28280AEF1020E6344A3EB52
:10179C000909A4B2B9FBF0F300FB139944EA09441C
:1017AC0003FB06F6A64208D91CEB040403F1FF3038
:1017BC0068D2A64266D9023B644443EA0E40A41B9D
:1017CC00A0FB02E6B4427346B14652D34FD05DB192
:1017DC00B8EB030264EB090404FA07F722FA01F3ED
:1017EC001F43CC40C5E9007400214CE7C2F1200135
:1017FC0020FA01F30CFA02FC26FA01F1964033436D
:10180C004FEA1C471FFA8CFEB1FBF7F007FB1016D2
:10181C00190C41EA064100FB0EF68E4204FA02F462
:10182C0008D91CEB010100F1FF382DD28E422BD9C7
:10183C0002386144891B9BB2B1FBF7F607FB16110A
:10184C0043EA014306FB0EF1994208D91CEB030352
:10185C0006F1FF3814D2994212D9023E63445B1A46
:10186C0046EA004136E73946EDE6184602E7F04510
:10187C00ADD2BEEB020366EB0C060138B146A6E70F
:10188C004646ECE7034698E74046D3E7D6467EE764
:10189C006444023847E708460DE7023E63442DE7EF
:1018AC00830730B547D0541E002A3ED0CAB2034637
:1018BC0001E0013C39D303F8012B9D07F9D1032C2E
:1018CC002CD9CDB205EB05250F2C05EB054535D9EB
:1018DC00A4F1100222F00F0C03F1100EE6444FEAB3
:1018EC00121C1A46C2E90055C2E902551032724563
:1018FC00F8D10CF1010214F00C0F03EB021204F0FE
:10190C000F0C13D0ACF1040323F003030433134482
:10191C0042F8045B9342FBD10CF003042CB1C9B226
:10192C001C4403F8011BA342FBD130BD6446134693
:10193C00002CF4D1F9E703461446C0E71A46A44636
:10194C00E0E700BF70B50F4B0F4DAB42A3EB0506A4
:10195C0007D0B610002455F8043B01349847A64232
:10196C00F9D800F07FF8094D094B5E1BAB424FEAEA
:10197C00A60606D0002455F8043B01349847A6422D
:10198C00F9D870BDA01A0008A01A0008A01A000807
:10199C00A81A0008704700BF704700BF024B13B174
:1019AC00024800F005B8704700000000C919000893
:1019BC00002301461A46184600F014B838B5074DF6
:1019CC00074C2C1BA41005D0013C55F8043D98473E
:1019DC00002CF9D1BDE8384000F04AB8AC1A000828
:1019EC00A81A00082DE9F8431B4D064628689846AE
:1019FC000F469146FFF7CEFF184B1C681CB32868A6
:101A0C0065681F2D22DC4EB96B1C0235636044F8EF
:101A1C002570FFF7C1FF0020BDE8F88304EB8501BA
:101A2C000123C1F88890D4F88821AB401A43022EC8
:101A3C00C4F88821C1F80881E6D1D4F88C211A4366
:101A4C00C4F88C21E0E7064C1C60D8E7FFF7A4FF34
:101A5C004FF0FF30E0E700BF0C000020C400002076
:101A6C00C8000020F8B500BFF8BC08BC9E46704703
:0C1A7C00F8B500BFF8BC08BC9E467047DF
:101A88000000000000000000010203040607080926
:081A980058FBFF7F0100000074
:081AA000A91900084902000821
:041AA800210200080F
:101AAC000024F4000100000010000000C000002021
:0400000508000635B4
:00000001FF
